{
  "_format": "hh-sol-artifact-1",
  "contractName": "UniversityDegree",
  "sourceName": "contracts/UniversitySbt.sol",
  "abi": [
    {
      "inputs": [],
      "stateMutability": "nonpayable",
      "type": "constructor"
    },
    {
      "anonymous": false,
      "inputs": [
        {
          "indexed": true,
          "internalType": "address",
          "name": "owner",
          "type": "address"
        },
        {
          "indexed": true,
          "internalType": "address",
          "name": "approved",
          "type": "address"
        },
        {
          "indexed": true,
          "internalType": "uint256",
          "name": "tokenId",
          "type": "uint256"
        }
      ],
      "name": "Approval",
      "type": "event"
    },
    {
      "anonymous": false,
      "inputs": [
        {
          "indexed": true,
          "internalType": "address",
          "name": "owner",
          "type": "address"
        },
        {
          "indexed": true,
          "internalType": "address",
          "name": "operator",
          "type": "address"
        },
        {
          "indexed": false,
          "internalType": "bool",
          "name": "approved",
          "type": "bool"
        }
      ],
      "name": "ApprovalForAll",
      "type": "event"
    },
    {
      "anonymous": false,
      "inputs": [
        {
          "indexed": true,
          "internalType": "address",
          "name": "from",
          "type": "address"
        },
        {
          "indexed": true,
          "internalType": "address",
          "name": "to",
          "type": "address"
        },
        {
          "indexed": true,
          "internalType": "uint256",
          "name": "tokenId",
          "type": "uint256"
        }
      ],
      "name": "Transfer",
      "type": "event"
    },
    {
      "inputs": [
        {
          "internalType": "address",
          "name": "to",
          "type": "address"
        },
        {
          "internalType": "uint256",
          "name": "tokenId",
          "type": "uint256"
        }
      ],
      "name": "approve",
      "outputs": [],
      "stateMutability": "nonpayable",
      "type": "function"
    },
    {
      "inputs": [
        {
          "internalType": "address",
          "name": "owner",
          "type": "address"
        }
      ],
      "name": "balanceOf",
      "outputs": [
        {
          "internalType": "uint256",
          "name": "",
          "type": "uint256"
        }
      ],
      "stateMutability": "view",
      "type": "function"
    },
    {
      "inputs": [
        {
          "internalType": "string",
          "name": "tokenURI",
          "type": "string"
        }
      ],
      "name": "claimDegree",
      "outputs": [
        {
          "internalType": "uint256",
          "name": "",
          "type": "uint256"
        }
      ],
      "stateMutability": "nonpayable",
      "type": "function"
    },
    {
      "inputs": [
        {
          "internalType": "uint256",
          "name": "tokenId",
          "type": "uint256"
        }
      ],
      "name": "getApproved",
      "outputs": [
        {
          "internalType": "address",
          "name": "",
          "type": "address"
        }
      ],
      "stateMutability": "view",
      "type": "function"
    },
    {
      "inputs": [
        {
          "internalType": "address",
          "name": "owner",
          "type": "address"
        },
        {
          "internalType": "address",
          "name": "operator",
          "type": "address"
        }
      ],
      "name": "isApprovedForAll",
      "outputs": [
        {
          "internalType": "bool",
          "name": "",
          "type": "bool"
        }
      ],
      "stateMutability": "view",
      "type": "function"
    },
    {
      "inputs": [
        {
          "internalType": "address",
          "name": "to",
          "type": "address"
        }
      ],
      "name": "issueDegree",
      "outputs": [],
      "stateMutability": "nonpayable",
      "type": "function"
    },
    {
      "inputs": [
        {
          "internalType": "address",
          "name": "",
          "type": "address"
        }
      ],
      "name": "issuedDegree",
      "outputs": [
        {
          "internalType": "bool",
          "name": "",
          "type": "bool"
        }
      ],
      "stateMutability": "view",
      "type": "function"
    },
    {
      "inputs": [],
      "name": "name",
      "outputs": [
        {
          "internalType": "string",
          "name": "",
          "type": "string"
        }
      ],
      "stateMutability": "view",
      "type": "function"
    },
    {
      "inputs": [
        {
          "internalType": "uint256",
          "name": "tokenId",
          "type": "uint256"
        }
      ],
      "name": "ownerOf",
      "outputs": [
        {
          "internalType": "address",
          "name": "",
          "type": "address"
        }
      ],
      "stateMutability": "view",
      "type": "function"
    },
    {
      "inputs": [
        {
          "internalType": "address",
          "name": "",
          "type": "address"
        }
      ],
      "name": "personToDegree",
      "outputs": [
        {
          "internalType": "string",
          "name": "",
          "type": "string"
        }
      ],
      "stateMutability": "view",
      "type": "function"
    },
    {
      "inputs": [
        {
          "internalType": "address",
          "name": "from",
          "type": "address"
        },
        {
          "internalType": "address",
          "name": "to",
          "type": "address"
        },
        {
          "internalType": "uint256",
          "name": "tokenId",
          "type": "uint256"
        }
      ],
      "name": "safeTransferFrom",
      "outputs": [],
      "stateMutability": "nonpayable",
      "type": "function"
    },
    {
      "inputs": [
        {
          "internalType": "address",
          "name": "from",
          "type": "address"
        },
        {
          "internalType": "address",
          "name": "to",
          "type": "address"
        },
        {
          "internalType": "uint256",
          "name": "tokenId",
          "type": "uint256"
        },
        {
          "internalType": "bytes",
          "name": "data",
          "type": "bytes"
        }
      ],
      "name": "safeTransferFrom",
      "outputs": [],
      "stateMutability": "nonpayable",
      "type": "function"
    },
    {
      "inputs": [
        {
          "internalType": "address",
          "name": "operator",
          "type": "address"
        },
        {
          "internalType": "bool",
          "name": "approved",
          "type": "bool"
        }
      ],
      "name": "setApprovalForAll",
      "outputs": [],
      "stateMutability": "nonpayable",
      "type": "function"
    },
    {
      "inputs": [
        {
          "internalType": "bytes4",
          "name": "interfaceId",
          "type": "bytes4"
        }
      ],
      "name": "supportsInterface",
      "outputs": [
        {
          "internalType": "bool",
          "name": "",
          "type": "bool"
        }
      ],
      "stateMutability": "view",
      "type": "function"
    },
    {
      "inputs": [],
      "name": "symbol",
      "outputs": [
        {
          "internalType": "string",
          "name": "",
          "type": "string"
        }
      ],
      "stateMutability": "view",
      "type": "function"
    },
    {
      "inputs": [
        {
          "internalType": "uint256",
          "name": "tokenId",
          "type": "uint256"
        }
      ],
      "name": "tokenURI",
      "outputs": [
        {
          "internalType": "string",
          "name": "",
          "type": "string"
        }
      ],
      "stateMutability": "view",
      "type": "function"
    },
    {
      "inputs": [
        {
          "internalType": "address",
          "name": "from",
          "type": "address"
        },
        {
          "internalType": "address",
          "name": "to",
          "type": "address"
        },
        {
          "internalType": "uint256",
          "name": "tokenId",
          "type": "uint256"
        }
      ],
      "name": "transferFrom",
      "outputs": [],
      "stateMutability": "nonpayable",
      "type": "function"
    }
  ],
  "bytecode": "0x60806040523480156200001157600080fd5b506040518060400160405280601081526020017f556e6976657273697479446567726565000000000000000000000000000000008152506040518060400160405280600681526020017f4465677265650000000000000000000000000000000000000000000000000000815250816000908051906020019062000096929190620000f9565b508060019080519060200190620000af929190620000f9565b50505033600860006101000a81548173ffffffffffffffffffffffffffffffffffffffff021916908373ffffffffffffffffffffffffffffffffffffffff1602179055506200020e565b8280546200010790620001a9565b90600052602060002090601f0160209004810192826200012b576000855562000177565b82601f106200014657805160ff191683800117855562000177565b8280016001018555821562000177579182015b828111156200017657825182559160200191906001019062000159565b5b5090506200018691906200018a565b5090565b5b80821115620001a55760008160009055506001016200018b565b5090565b60006002820490506001821680620001c257607f821691505b60208210811415620001d957620001d8620001df565b5b50919050565b7f4e487b7100000000000000000000000000000000000000000000000000000000600052602260045260246000fd5b612a2b806200021e6000396000f3fe608060405234801561001057600080fd5b506004361061010b5760003560e01c806349d89ea4116100a2578063a22cb46511610071578063a22cb465146102dc578063b88d4fde146102f8578063c87b56dd14610314578063e985e9c514610344578063fb8b0af5146103745761010b565b806349d89ea4146102425780636352211e1461025e57806370a082311461028e57806395d89b41146102be5761010b565b806323b872dd116100de57806323b872dd146101aa5780632db2f478146101c657806337f902f0146101f657806342842e0e146102265761010b565b806301ffc9a71461011057806306fdde0314610140578063081812fc1461015e578063095ea7b31461018e575b600080fd5b61012a60048036038101906101259190611e7c565b6103a4565b6040516101379190612199565b60405180910390f35b610148610486565b60405161015591906121b4565b60405180910390f35b61017860048036038101906101739190611ef2565b610518565b604051610185919061217e565b60405180910390f35b6101a860048036038101906101a39190611e3c565b61055e565b005b6101c460048036038101906101bf9190611d26565b610676565b005b6101e060048036038101906101db9190611ea9565b6106d6565b6040516101ed9190612356565b60405180910390f35b610210600480360381019061020b9190611cb9565b6107ed565b60405161021d91906121b4565b60405180910390f35b610240600480360381019061023b9190611d26565b61088d565b005b61025c60048036038101906102579190611cb9565b6108ad565b005b61027860048036038101906102739190611ef2565b610962565b604051610285919061217e565b60405180910390f35b6102a860048036038101906102a39190611cb9565b6109e9565b6040516102b59190612356565b60405180910390f35b6102c6610aa1565b6040516102d391906121b4565b60405180910390f35b6102f660048036038101906102f19190611dfc565b610b33565b005b610312600480360381019061030d9190611d79565b610b49565b005b61032e60048036038101906103299190611ef2565b610b9f565b60405161033b91906121b4565b60405180910390f35b61035e60048036038101906103599190611ce6565b610cb2565b60405161036b9190612199565b60405180910390f35b61038e60048036038101906103899190611cb9565b610d46565b60405161039b9190612199565b60405180910390f35b60007f80ac58cd000000000000000000000000000000000000000000000000000000007bffffffffffffffffffffffffffffffffffffffffffffffffffffffff1916827bffffffffffffffffffffffffffffffffffffffffffffffffffffffff1916148061046f57507f5b5e139f000000000000000000000000000000000000000000000000000000007bffffffffffffffffffffffffffffffffffffffffffffffffffffffff1916827bffffffffffffffffffffffffffffffffffffffffffffffffffffffff1916145b8061047f575061047e82610d66565b5b9050919050565b6060600080546104959061255f565b80601f01602080910402602001604051908101604052809291908181526020018280546104c19061255f565b801561050e5780601f106104e35761010080835404028352916020019161050e565b820191906000526020600020905b8154815290600101906020018083116104f157829003601f168201915b5050505050905090565b600061052382610dd0565b6004600083815260200190815260200160002060009054906101000a900473ffffffffffffffffffffffffffffffffffffffff169050919050565b600061056982610962565b90508073ffffffffffffffffffffffffffffffffffffffff168373ffffffffffffffffffffffffffffffffffffffff1614156105da576040517f08c379a00000000000000000000000000000000000000000000000000000000081526004016105d1906122f6565b60405180910390fd5b8073ffffffffffffffffffffffffffffffffffffffff166105f9610e1b565b73ffffffffffffffffffffffffffffffffffffffff161480610628575061062781610622610e1b565b610cb2565b5b610667576040517f08c379a000000000000000000000000000000000000000000000000000000000815260040161065e90612316565b60405180910390fd5b6106718383610e23565b505050565b610687610681610e1b565b82610edc565b6106c6576040517f08c379a00000000000000000000000000000000000000000000000000000000081526004016106bd906121d6565b60405180910390fd5b6106d1838383610f71565b505050565b6000600960003373ffffffffffffffffffffffffffffffffffffffff1673ffffffffffffffffffffffffffffffffffffffff16815260200190815260200160002060009054906101000a900460ff16610764576040517f08c379a000000000000000000000000000000000000000000000000000000000815260040161075b90612336565b60405180910390fd5b61076e600761126b565b600061077a6007611281565b9050610786338261128f565b61079081846114ad565b82600a60003373ffffffffffffffffffffffffffffffffffffffff1673ffffffffffffffffffffffffffffffffffffffff16815260200190815260200160002090805190602001906107e3929190611ae2565b5080915050919050565b600a602052806000526040600020600091509050805461080c9061255f565b80601f01602080910402602001604051908101604052809291908181526020018280546108389061255f565b80156108855780601f1061085a57610100808354040283529160200191610885565b820191906000526020600020905b81548152906001019060200180831161086857829003601f168201915b505050505081565b6108a883838360405180602001604052806000815250610b49565b505050565b600860009054906101000a900473ffffffffffffffffffffffffffffffffffffffff1673ffffffffffffffffffffffffffffffffffffffff163373ffffffffffffffffffffffffffffffffffffffff161461090757600080fd5b6001600960008373ffffffffffffffffffffffffffffffffffffffff1673ffffffffffffffffffffffffffffffffffffffff16815260200190815260200160002060006101000a81548160ff02191690831515021790555050565b60008061096e83611521565b9050600073ffffffffffffffffffffffffffffffffffffffff168173ffffffffffffffffffffffffffffffffffffffff1614156109e0576040517f08c379a00000000000000000000000000000000000000000000000000000000081526004016109d7906122d6565b60405180910390fd5b80915050919050565b60008073ffffffffffffffffffffffffffffffffffffffff168273ffffffffffffffffffffffffffffffffffffffff161415610a5a576040517f08c379a0000000000000000000000000000000000000000000000000000000008152600401610a5190612276565b60405180910390fd5b600360008373ffffffffffffffffffffffffffffffffffffffff1673ffffffffffffffffffffffffffffffffffffffff168152602001908152602001600020549050919050565b606060018054610ab09061255f565b80601f0160208091040260200160405190810160405280929190818152602001828054610adc9061255f565b8015610b295780601f10610afe57610100808354040283529160200191610b29565b820191906000526020600020905b815481529060010190602001808311610b0c57829003601f168201915b5050505050905090565b610b45610b3e610e1b565b838361155e565b5050565b610b5a610b54610e1b565b83610edc565b610b99576040517f08c379a0000000000000000000000000000000000000000000000000000000008152600401610b90906121d6565b60405180910390fd5b50505050565b6060610baa82610dd0565b6000600660008481526020019081526020016000208054610bca9061255f565b80601f0160208091040260200160405190810160405280929190818152602001828054610bf69061255f565b8015610c435780601f10610c1857610100808354040283529160200191610c43565b820191906000526020600020905b815481529060010190602001808311610c2657829003601f168201915b505050505090506000610c546116cb565b9050600081511415610c6a578192505050610cad565b600082511115610c9f578082604051602001610c8792919061215a565b60405160208183030381529060405292505050610cad565b610ca8846116e2565b925050505b919050565b6000600560008473ffffffffffffffffffffffffffffffffffffffff1673ffffffffffffffffffffffffffffffffffffffff16815260200190815260200160002060008373ffffffffffffffffffffffffffffffffffffffff1673ffffffffffffffffffffffffffffffffffffffff16815260200190815260200160002060009054906101000a900460ff16905092915050565b60096020528060005260406000206000915054906101000a900460ff1681565b60007f01ffc9a7000000000000000000000000000000000000000000000000000000007bffffffffffffffffffffffffffffffffffffffffffffffffffffffff1916827bffffffffffffffffffffffffffffffffffffffffffffffffffffffff1916149050919050565b610dd98161174a565b610e18576040517f08c379a0000000000000000000000000000000000000000000000000000000008152600401610e0f906122d6565b60405180910390fd5b50565b600033905090565b816004600083815260200190815260200160002060006101000a81548173ffffffffffffffffffffffffffffffffffffffff021916908373ffffffffffffffffffffffffffffffffffffffff160217905550808273ffffffffffffffffffffffffffffffffffffffff16610e9683610962565b73ffffffffffffffffffffffffffffffffffffffff167f8c5be1e5ebec7d5bd14f71427d1e84f3dd0314c0f7b2291e5b200ac8c7c3b92560405160405180910390a45050565b600080610ee883610962565b90508073ffffffffffffffffffffffffffffffffffffffff168473ffffffffffffffffffffffffffffffffffffffff161480610f2a5750610f298185610cb2565b5b80610f6857508373ffffffffffffffffffffffffffffffffffffffff16610f5084610518565b73ffffffffffffffffffffffffffffffffffffffff16145b91505092915050565b8273ffffffffffffffffffffffffffffffffffffffff16610f9182610962565b73ffffffffffffffffffffffffffffffffffffffff1614610fe7576040517f08c379a0000000000000000000000000000000000000000000000000000000008152600401610fde906121f6565b60405180910390fd5b600073ffffffffffffffffffffffffffffffffffffffff168273ffffffffffffffffffffffffffffffffffffffff161415611057576040517f08c379a000000000000000000000000000000000000000000000000000000000815260040161104e90612236565b60405180910390fd5b611064838383600161178b565b8273ffffffffffffffffffffffffffffffffffffffff1661108482610962565b73ffffffffffffffffffffffffffffffffffffffff16146110da576040517f08c379a00000000000000000000000000000000000000000000000000000000081526004016110d1906121f6565b60405180910390fd5b6004600082815260200190815260200160002060006101000a81549073ffffffffffffffffffffffffffffffffffffffff02191690556001600360008573ffffffffffffffffffffffffffffffffffffffff1673ffffffffffffffffffffffffffffffffffffffff168152602001908152602001600020600082825403925050819055506001600360008473ffffffffffffffffffffffffffffffffffffffff1673ffffffffffffffffffffffffffffffffffffffff16815260200190815260200160002060008282540192505081905550816002600083815260200190815260200160002060006101000a81548173ffffffffffffffffffffffffffffffffffffffff021916908373ffffffffffffffffffffffffffffffffffffffff160217905550808273ffffffffffffffffffffffffffffffffffffffff168473ffffffffffffffffffffffffffffffffffffffff167fddf252ad1be2c89b69c2b068fc378daa952ba7f163c4a11628f55a4df523b3ef60405160405180910390a461126683838360016118b1565b505050565b6001816000016000828254019250508190555050565b600081600001549050919050565b600073ffffffffffffffffffffffffffffffffffffffff168273ffffffffffffffffffffffffffffffffffffffff1614156112ff576040517f08c379a00000000000000000000000000000000000000000000000000000000081526004016112f6906122b6565b60405180910390fd5b6113088161174a565b15611348576040517f08c379a000000000000000000000000000000000000000000000000000000000815260040161133f90612216565b60405180910390fd5b61135660008383600161178b565b61135f8161174a565b1561139f576040517f08c379a000000000000000000000000000000000000000000000000000000000815260040161139690612216565b60405180910390fd5b6001600360008473ffffffffffffffffffffffffffffffffffffffff1673ffffffffffffffffffffffffffffffffffffffff16815260200190815260200160002060008282540192505081905550816002600083815260200190815260200160002060006101000a81548173ffffffffffffffffffffffffffffffffffffffff021916908373ffffffffffffffffffffffffffffffffffffffff160217905550808273ffffffffffffffffffffffffffffffffffffffff16600073ffffffffffffffffffffffffffffffffffffffff167fddf252ad1be2c89b69c2b068fc378daa952ba7f163c4a11628f55a4df523b3ef60405160405180910390a46114a96000838360016118b1565b5050565b6114b68261174a565b6114f5576040517f08c379a00000000000000000000000000000000000000000000000000000000081526004016114ec90612296565b60405180910390fd5b8060066000848152602001908152602001600020908051906020019061151c929190611ae2565b505050565b60006002600083815260200190815260200160002060009054906101000a900473ffffffffffffffffffffffffffffffffffffffff169050919050565b8173ffffffffffffffffffffffffffffffffffffffff168373ffffffffffffffffffffffffffffffffffffffff1614156115cd576040517f08c379a00000000000000000000000000000000000000000000000000000000081526004016115c490612256565b60405180910390fd5b80600560008573ffffffffffffffffffffffffffffffffffffffff1673ffffffffffffffffffffffffffffffffffffffff16815260200190815260200160002060008473ffffffffffffffffffffffffffffffffffffffff1673ffffffffffffffffffffffffffffffffffffffff16815260200190815260200160002060006101000a81548160ff0219169083151502179055508173ffffffffffffffffffffffffffffffffffffffff168373ffffffffffffffffffffffffffffffffffffffff167f17307eab39ab6107e8899845ad3d59bd9653f200f220920489ca2b5937696c31836040516116be9190612199565b60405180910390a3505050565b606060405180602001604052806000815250905090565b60606116ed82610dd0565b60006116f76116cb565b905060008151116117175760405180602001604052806000815250611742565b80611721846118b7565b60405160200161173292919061215a565b6040516020818303038152906040525b915050919050565b60008073ffffffffffffffffffffffffffffffffffffffff1661176c83611521565b73ffffffffffffffffffffffffffffffffffffffff1614159050919050565b60018111156118ab57600073ffffffffffffffffffffffffffffffffffffffff168473ffffffffffffffffffffffffffffffffffffffff161461181f5780600360008673ffffffffffffffffffffffffffffffffffffffff1673ffffffffffffffffffffffffffffffffffffffff16815260200190815260200160002060008282546118179190612475565b925050819055505b600073ffffffffffffffffffffffffffffffffffffffff168373ffffffffffffffffffffffffffffffffffffffff16146118aa5780600360008573ffffffffffffffffffffffffffffffffffffffff1673ffffffffffffffffffffffffffffffffffffffff16815260200190815260200160002060008282546118a2919061241f565b925050819055505b5b50505050565b50505050565b6060600060016118c68461198f565b01905060008167ffffffffffffffff8111156118e5576118e461264f565b5b6040519080825280601f01601f1916602001820160405280156119175781602001600182028036833780820191505090505b509050600082602001820190505b600115611984578080600190039150507f3031323334353637383961626364656600000000000000000000000000000000600a86061a8153600a858161196e5761196d6125f1565b5b049450600085141561197f57611984565b611925565b819350505050919050565b600080600090507a184f03e93ff9f4daa797ed6e38ed64bf6a1f01000000000000000083106119ed577a184f03e93ff9f4daa797ed6e38ed64bf6a1f01000000000000000083816119e3576119e26125f1565b5b0492506040810190505b6d04ee2d6d415b85acef81000000008310611a2a576d04ee2d6d415b85acef81000000008381611a2057611a1f6125f1565b5b0492506020810190505b662386f26fc100008310611a5957662386f26fc100008381611a4f57611a4e6125f1565b5b0492506010810190505b6305f5e1008310611a82576305f5e1008381611a7857611a776125f1565b5b0492506008810190505b6127108310611aa7576127108381611a9d57611a9c6125f1565b5b0492506004810190505b60648310611aca5760648381611ac057611abf6125f1565b5b0492506002810190505b600a8310611ad9576001810190505b80915050919050565b828054611aee9061255f565b90600052602060002090601f016020900481019282611b105760008555611b57565b82601f10611b2957805160ff1916838001178555611b57565b82800160010185558215611b57579182015b82811115611b56578251825591602001919060010190611b3b565b5b509050611b649190611b68565b5090565b5b80821115611b81576000816000905550600101611b69565b5090565b6000611b98611b9384612396565b612371565b905082815260208101848484011115611bb457611bb3612683565b5b611bbf84828561251d565b509392505050565b6000611bda611bd5846123c7565b612371565b905082815260208101848484011115611bf657611bf5612683565b5b611c0184828561251d565b509392505050565b600081359050611c1881612999565b92915050565b600081359050611c2d816129b0565b92915050565b600081359050611c42816129c7565b92915050565b600082601f830112611c5d57611c5c61267e565b5b8135611c6d848260208601611b85565b91505092915050565b600082601f830112611c8b57611c8a61267e565b5b8135611c9b848260208601611bc7565b91505092915050565b600081359050611cb3816129de565b92915050565b600060208284031215611ccf57611cce61268d565b5b6000611cdd84828501611c09565b91505092915050565b60008060408385031215611cfd57611cfc61268d565b5b6000611d0b85828601611c09565b9250506020611d1c85828601611c09565b9150509250929050565b600080600060608486031215611d3f57611d3e61268d565b5b6000611d4d86828701611c09565b9350506020611d5e86828701611c09565b9250506040611d6f86828701611ca4565b9150509250925092565b60008060008060808587031215611d9357611d9261268d565b5b6000611da187828801611c09565b9450506020611db287828801611c09565b9350506040611dc387828801611ca4565b925050606085013567ffffffffffffffff811115611de457611de3612688565b5b611df087828801611c48565b91505092959194509250565b60008060408385031215611e1357611e1261268d565b5b6000611e2185828601611c09565b9250506020611e3285828601611c1e565b9150509250929050565b60008060408385031215611e5357611e5261268d565b5b6000611e6185828601611c09565b9250506020611e7285828601611ca4565b9150509250929050565b600060208284031215611e9257611e9161268d565b5b6000611ea084828501611c33565b91505092915050565b600060208284031215611ebf57611ebe61268d565b5b600082013567ffffffffffffffff811115611edd57611edc612688565b5b611ee984828501611c76565b91505092915050565b600060208284031215611f0857611f0761268d565b5b6000611f1684828501611ca4565b91505092915050565b611f28816124a9565b82525050565b611f37816124bb565b82525050565b6000611f48826123f8565b611f528185612403565b9350611f6281856020860161252c565b611f6b81612692565b840191505092915050565b6000611f81826123f8565b611f8b8185612414565b9350611f9b81856020860161252c565b80840191505092915050565b6000611fb4602d83612403565b9150611fbf826126a3565b604082019050919050565b6000611fd7602583612403565b9150611fe2826126f2565b604082019050919050565b6000611ffa601c83612403565b915061200582612741565b602082019050919050565b600061201d602483612403565b91506120288261276a565b604082019050919050565b6000612040601983612403565b915061204b826127b9565b602082019050919050565b6000612063602983612403565b915061206e826127e2565b604082019050919050565b6000612086602e83612403565b915061209182612831565b604082019050919050565b60006120a9602083612403565b91506120b482612880565b602082019050919050565b60006120cc601883612403565b91506120d7826128a9565b602082019050919050565b60006120ef602183612403565b91506120fa826128d2565b604082019050919050565b6000612112603d83612403565b915061211d82612921565b604082019050919050565b6000612135601483612403565b915061214082612970565b602082019050919050565b61215481612513565b82525050565b60006121668285611f76565b91506121728284611f76565b91508190509392505050565b60006020820190506121936000830184611f1f565b92915050565b60006020820190506121ae6000830184611f2e565b92915050565b600060208201905081810360008301526121ce8184611f3d565b905092915050565b600060208201905081810360008301526121ef81611fa7565b9050919050565b6000602082019050818103600083015261220f81611fca565b9050919050565b6000602082019050818103600083015261222f81611fed565b9050919050565b6000602082019050818103600083015261224f81612010565b9050919050565b6000602082019050818103600083015261226f81612033565b9050919050565b6000602082019050818103600083015261228f81612056565b9050919050565b600060208201905081810360008301526122af81612079565b9050919050565b600060208201905081810360008301526122cf8161209c565b9050919050565b600060208201905081810360008301526122ef816120bf565b9050919050565b6000602082019050818103600083015261230f816120e2565b9050919050565b6000602082019050818103600083015261232f81612105565b9050919050565b6000602082019050818103600083015261234f81612128565b9050919050565b600060208201905061236b600083018461214b565b92915050565b600061237b61238c565b90506123878282612591565b919050565b6000604051905090565b600067ffffffffffffffff8211156123b1576123b061264f565b5b6123ba82612692565b9050602081019050919050565b600067ffffffffffffffff8211156123e2576123e161264f565b5b6123eb82612692565b9050602081019050919050565b600081519050919050565b600082825260208201905092915050565b600081905092915050565b600061242a82612513565b915061243583612513565b9250827fffffffffffffffffffffffffffffffffffffffffffffffffffffffffffffffff0382111561246a576124696125c2565b5b828201905092915050565b600061248082612513565b915061248b83612513565b92508282101561249e5761249d6125c2565b5b828203905092915050565b60006124b4826124f3565b9050919050565b60008115159050919050565b60007fffffffff0000000000000000000000000000000000000000000000000000000082169050919050565b600073ffffffffffffffffffffffffffffffffffffffff82169050919050565b6000819050919050565b82818337600083830152505050565b60005b8381101561254a57808201518184015260208101905061252f565b83811115612559576000848401525b50505050565b6000600282049050600182168061257757607f821691505b6020821081141561258b5761258a612620565b5b50919050565b61259a82612692565b810181811067ffffffffffffffff821117156125b9576125b861264f565b5b80604052505050565b7f4e487b7100000000000000000000000000000000000000000000000000000000600052601160045260246000fd5b7f4e487b7100000000000000000000000000000000000000000000000000000000600052601260045260246000fd5b7f4e487b7100000000000000000000000000000000000000000000000000000000600052602260045260246000fd5b7f4e487b7100000000000000000000000000000000000000000000000000000000600052604160045260246000fd5b600080fd5b600080fd5b600080fd5b600080fd5b6000601f19601f8301169050919050565b7f4552433732313a2063616c6c6572206973206e6f7420746f6b656e206f776e6560008201527f72206f7220617070726f76656400000000000000000000000000000000000000602082015250565b7f4552433732313a207472616e736665722066726f6d20696e636f72726563742060008201527f6f776e6572000000000000000000000000000000000000000000000000000000602082015250565b7f4552433732313a20746f6b656e20616c7265616479206d696e74656400000000600082015250565b7f4552433732313a207472616e7366657220746f20746865207a65726f2061646460008201527f7265737300000000000000000000000000000000000000000000000000000000602082015250565b7f4552433732313a20617070726f766520746f2063616c6c657200000000000000600082015250565b7f4552433732313a2061646472657373207a65726f206973206e6f74206120766160008201527f6c6964206f776e65720000000000000000000000000000000000000000000000602082015250565b7f45524337323155524953746f726167653a2055524920736574206f66206e6f6e60008201527f6578697374656e7420746f6b656e000000000000000000000000000000000000602082015250565b7f4552433732313a206d696e7420746f20746865207a65726f2061646472657373600082015250565b7f4552433732313a20696e76616c696420746f6b656e2049440000000000000000600082015250565b7f4552433732313a20617070726f76616c20746f2063757272656e74206f776e6560008201527f7200000000000000000000000000000000000000000000000000000000000000602082015250565b7f4552433732313a20617070726f76652063616c6c6572206973206e6f7420746f60008201527f6b656e206f776e6572206f7220617070726f76656420666f7220616c6c000000602082015250565b7f446567726565206973206e6f7420697373756564000000000000000000000000600082015250565b6129a2816124a9565b81146129ad57600080fd5b50565b6129b9816124bb565b81146129c457600080fd5b50565b6129d0816124c7565b81146129db57600080fd5b50565b6129e781612513565b81146129f257600080fd5b5056fea2646970667358221220521e24688104279d0b5d5c8a56e1fddb11f20fb78f29e61c28444aae0c3df76e64736f6c63430008050033",
  "linkReferences": {},
  "deployedLinkReferences": {}
}