{
  "_format": "hh-sol-artifact-1",
  "contractName": "UniversityDegree",
  "sourceName": "contracts/UniversitySbt.sol",
  "abi": [
    {
      "inputs": [],
      "stateMutability": "nonpayable",
      "type": "constructor"
    },
    {
      "anonymous": false,
      "inputs": [
        {
          "indexed": true,
          "internalType": "address",
          "name": "owner",
          "type": "address"
        },
        {
          "indexed": true,
          "internalType": "address",
          "name": "approved",
          "type": "address"
        },
        {
          "indexed": true,
          "internalType": "uint256",
          "name": "tokenId",
          "type": "uint256"
        }
      ],
      "name": "Approval",
      "type": "event"
    },
    {
      "anonymous": false,
      "inputs": [
        {
          "indexed": true,
          "internalType": "address",
          "name": "owner",
          "type": "address"
        },
        {
          "indexed": true,
          "internalType": "address",
          "name": "operator",
          "type": "address"
        },
        {
          "indexed": false,
          "internalType": "bool",
          "name": "approved",
          "type": "bool"
        }
      ],
      "name": "ApprovalForAll",
      "type": "event"
    },
    {
      "anonymous": false,
      "inputs": [
        {
          "indexed": true,
          "internalType": "address",
          "name": "from",
          "type": "address"
        },
        {
          "indexed": true,
          "internalType": "address",
          "name": "to",
          "type": "address"
        },
        {
          "indexed": true,
          "internalType": "uint256",
          "name": "tokenId",
          "type": "uint256"
        }
      ],
      "name": "Transfer",
      "type": "event"
    },
    {
      "inputs": [
        {
          "internalType": "address",
          "name": "to",
          "type": "address"
        },
        {
          "internalType": "uint256",
          "name": "tokenId",
          "type": "uint256"
        }
      ],
      "name": "approve",
      "outputs": [],
      "stateMutability": "nonpayable",
      "type": "function"
    },
    {
      "inputs": [
        {
          "internalType": "address",
          "name": "owner",
          "type": "address"
        }
      ],
      "name": "balanceOf",
      "outputs": [
        {
          "internalType": "uint256",
          "name": "",
          "type": "uint256"
        }
      ],
      "stateMutability": "view",
      "type": "function"
    },
    {
      "inputs": [
        {
          "internalType": "string",
          "name": "tokenURI",
          "type": "string"
        }
      ],
      "name": "claimDegree",
      "outputs": [
        {
          "internalType": "uint256",
          "name": "",
          "type": "uint256"
        }
      ],
      "stateMutability": "nonpayable",
      "type": "function"
    },
    {
      "inputs": [
        {
          "internalType": "uint256",
          "name": "tokenId",
          "type": "uint256"
        }
      ],
      "name": "getApproved",
      "outputs": [
        {
          "internalType": "address",
          "name": "",
          "type": "address"
        }
      ],
      "stateMutability": "view",
      "type": "function"
    },
    {
      "inputs": [
        {
          "internalType": "address",
          "name": "owner",
          "type": "address"
        },
        {
          "internalType": "address",
          "name": "operator",
          "type": "address"
        }
      ],
      "name": "isApprovedForAll",
      "outputs": [
        {
          "internalType": "bool",
          "name": "",
          "type": "bool"
        }
      ],
      "stateMutability": "view",
      "type": "function"
    },
    {
      "inputs": [
        {
          "internalType": "address",
          "name": "to",
          "type": "address"
        }
      ],
      "name": "issueDegree",
      "outputs": [],
      "stateMutability": "nonpayable",
      "type": "function"
    },
    {
      "inputs": [
        {
          "internalType": "address",
          "name": "",
          "type": "address"
        }
      ],
      "name": "issuedDegree",
      "outputs": [
        {
          "internalType": "bool",
          "name": "",
          "type": "bool"
        }
      ],
      "stateMutability": "view",
      "type": "function"
    },
    {
      "inputs": [],
      "name": "name",
      "outputs": [
        {
          "internalType": "string",
          "name": "",
          "type": "string"
        }
      ],
      "stateMutability": "view",
      "type": "function"
    },
    {
      "inputs": [
        {
          "internalType": "uint256",
          "name": "tokenId",
          "type": "uint256"
        }
      ],
      "name": "ownerOf",
      "outputs": [
        {
          "internalType": "address",
          "name": "",
          "type": "address"
        }
      ],
      "stateMutability": "view",
      "type": "function"
    },
    {
      "inputs": [
        {
          "internalType": "address",
          "name": "",
          "type": "address"
        }
      ],
      "name": "personToDegree",
      "outputs": [
        {
          "internalType": "string",
          "name": "",
          "type": "string"
        }
      ],
      "stateMutability": "view",
      "type": "function"
    },
    {
      "inputs": [
        {
          "internalType": "address",
          "name": "from",
          "type": "address"
        },
        {
          "internalType": "address",
          "name": "to",
          "type": "address"
        },
        {
          "internalType": "uint256",
          "name": "tokenId",
          "type": "uint256"
        }
      ],
      "name": "safeTransferFrom",
      "outputs": [],
      "stateMutability": "nonpayable",
      "type": "function"
    },
    {
      "inputs": [
        {
          "internalType": "address",
          "name": "from",
          "type": "address"
        },
        {
          "internalType": "address",
          "name": "to",
          "type": "address"
        },
        {
          "internalType": "uint256",
          "name": "tokenId",
          "type": "uint256"
        },
        {
          "internalType": "bytes",
          "name": "data",
          "type": "bytes"
        }
      ],
      "name": "safeTransferFrom",
      "outputs": [],
      "stateMutability": "nonpayable",
      "type": "function"
    },
    {
      "inputs": [
        {
          "internalType": "address",
          "name": "operator",
          "type": "address"
        },
        {
          "internalType": "bool",
          "name": "approved",
          "type": "bool"
        }
      ],
      "name": "setApprovalForAll",
      "outputs": [],
      "stateMutability": "nonpayable",
      "type": "function"
    },
    {
      "inputs": [
        {
          "internalType": "bytes4",
          "name": "interfaceId",
          "type": "bytes4"
        }
      ],
      "name": "supportsInterface",
      "outputs": [
        {
          "internalType": "bool",
          "name": "",
          "type": "bool"
        }
      ],
      "stateMutability": "view",
      "type": "function"
    },
    {
      "inputs": [],
      "name": "symbol",
      "outputs": [
        {
          "internalType": "string",
          "name": "",
          "type": "string"
        }
      ],
      "stateMutability": "view",
      "type": "function"
    },
    {
      "inputs": [
        {
          "internalType": "uint256",
          "name": "tokenId",
          "type": "uint256"
        }
      ],
      "name": "tokenURI",
      "outputs": [
        {
          "internalType": "string",
          "name": "",
          "type": "string"
        }
      ],
      "stateMutability": "view",
      "type": "function"
    },
    {
      "inputs": [
        {
          "internalType": "address",
          "name": "from",
          "type": "address"
        },
        {
          "internalType": "address",
          "name": "to",
          "type": "address"
        },
        {
          "internalType": "uint256",
          "name": "tokenId",
          "type": "uint256"
        }
      ],
      "name": "transferFrom",
      "outputs": [],
      "stateMutability": "nonpayable",
      "type": "function"
    }
  ],
  "bytecode": "0x60806040523480156200001157600080fd5b506040518060400160405280601081526020017f556e6976657273697479446567726565000000000000000000000000000000008152506040518060400160405280600681526020017f4465677265650000000000000000000000000000000000000000000000000000815250816000908051906020019062000096929190620000f9565b508060019080519060200190620000af929190620000f9565b50505033600860006101000a81548173ffffffffffffffffffffffffffffffffffffffff021916908373ffffffffffffffffffffffffffffffffffffffff1602179055506200020e565b8280546200010790620001a9565b90600052602060002090601f0160209004810192826200012b576000855562000177565b82601f106200014657805160ff191683800117855562000177565b8280016001018555821562000177579182015b828111156200017657825182559160200191906001019062000159565b5b5090506200018691906200018a565b5090565b5b80821115620001a55760008160009055506001016200018b565b5090565b60006002820490506001821680620001c257607f821691505b60208210811415620001d957620001d8620001df565b5b50919050565b7f4e487b7100000000000000000000000000000000000000000000000000000000600052602260045260246000fd5b612a83806200021e6000396000f3fe608060405234801561001057600080fd5b506004361061010b5760003560e01c806349d89ea4116100a2578063a22cb46511610071578063a22cb465146102dc578063b88d4fde146102f8578063c87b56dd14610314578063e985e9c514610344578063fb8b0af5146103745761010b565b806349d89ea4146102425780636352211e1461025e57806370a082311461028e57806395d89b41146102be5761010b565b806323b872dd116100de57806323b872dd146101aa5780632db2f478146101c657806337f902f0146101f657806342842e0e146102265761010b565b806301ffc9a71461011057806306fdde0314610140578063081812fc1461015e578063095ea7b31461018e575b600080fd5b61012a60048036038101906101259190611ed4565b6103a4565b60405161013791906121f1565b60405180910390f35b610148610486565b604051610155919061220c565b60405180910390f35b61017860048036038101906101739190611f4a565b610518565b60405161018591906121d6565b60405180910390f35b6101a860048036038101906101a39190611e94565b61055e565b005b6101c460048036038101906101bf9190611d7e565b610676565b005b6101e060048036038101906101db9190611f01565b6106d6565b6040516101ed91906123ae565b60405180910390f35b610210600480360381019061020b9190611d11565b610845565b60405161021d919061220c565b60405180910390f35b610240600480360381019061023b9190611d7e565b6108e5565b005b61025c60048036038101906102579190611d11565b610905565b005b61027860048036038101906102739190611f4a565b6109ba565b60405161028591906121d6565b60405180910390f35b6102a860048036038101906102a39190611d11565b610a41565b6040516102b591906123ae565b60405180910390f35b6102c6610af9565b6040516102d3919061220c565b60405180910390f35b6102f660048036038101906102f19190611e54565b610b8b565b005b610312600480360381019061030d9190611dd1565b610ba1565b005b61032e60048036038101906103299190611f4a565b610bf7565b60405161033b919061220c565b60405180910390f35b61035e60048036038101906103599190611d3e565b610d0a565b60405161036b91906121f1565b60405180910390f35b61038e60048036038101906103899190611d11565b610d9e565b60405161039b91906121f1565b60405180910390f35b60007f80ac58cd000000000000000000000000000000000000000000000000000000007bffffffffffffffffffffffffffffffffffffffffffffffffffffffff1916827bffffffffffffffffffffffffffffffffffffffffffffffffffffffff1916148061046f57507f5b5e139f000000000000000000000000000000000000000000000000000000007bffffffffffffffffffffffffffffffffffffffffffffffffffffffff1916827bffffffffffffffffffffffffffffffffffffffffffffffffffffffff1916145b8061047f575061047e82610dbe565b5b9050919050565b606060008054610495906125b7565b80601f01602080910402602001604051908101604052809291908181526020018280546104c1906125b7565b801561050e5780601f106104e35761010080835404028352916020019161050e565b820191906000526020600020905b8154815290600101906020018083116104f157829003601f168201915b5050505050905090565b600061052382610e28565b6004600083815260200190815260200160002060009054906101000a900473ffffffffffffffffffffffffffffffffffffffff169050919050565b6000610569826109ba565b90508073ffffffffffffffffffffffffffffffffffffffff168373ffffffffffffffffffffffffffffffffffffffff1614156105da576040517f08c379a00000000000000000000000000000000000000000000000000000000081526004016105d19061234e565b60405180910390fd5b8073ffffffffffffffffffffffffffffffffffffffff166105f9610e73565b73ffffffffffffffffffffffffffffffffffffffff161480610628575061062781610622610e73565b610d0a565b5b610667576040517f08c379a000000000000000000000000000000000000000000000000000000000815260040161065e9061236e565b60405180910390fd5b6106718383610e7b565b505050565b610687610681610e73565b82610f34565b6106c6576040517f08c379a00000000000000000000000000000000000000000000000000000000081526004016106bd9061222e565b60405180910390fd5b6106d1838383610fc9565b505050565b6000600960003373ffffffffffffffffffffffffffffffffffffffff1673ffffffffffffffffffffffffffffffffffffffff16815260200190815260200160002060009054906101000a900460ff16610764576040517f08c379a000000000000000000000000000000000000000000000000000000000815260040161075b9061238e565b60405180910390fd5b61076e60076112c3565b600061077a60076112d9565b905061078633826112e7565b6107908184611505565b82600a60003373ffffffffffffffffffffffffffffffffffffffff1673ffffffffffffffffffffffffffffffffffffffff16815260200190815260200160002090805190602001906107e3929190611b3a565b506000600960003373ffffffffffffffffffffffffffffffffffffffff1673ffffffffffffffffffffffffffffffffffffffff16815260200190815260200160002060006101000a81548160ff02191690831515021790555080915050919050565b600a6020528060005260406000206000915090508054610864906125b7565b80601f0160208091040260200160405190810160405280929190818152602001828054610890906125b7565b80156108dd5780601f106108b2576101008083540402835291602001916108dd565b820191906000526020600020905b8154815290600101906020018083116108c057829003601f168201915b505050505081565b61090083838360405180602001604052806000815250610ba1565b505050565b600860009054906101000a900473ffffffffffffffffffffffffffffffffffffffff1673ffffffffffffffffffffffffffffffffffffffff163373ffffffffffffffffffffffffffffffffffffffff161461095f57600080fd5b6001600960008373ffffffffffffffffffffffffffffffffffffffff1673ffffffffffffffffffffffffffffffffffffffff16815260200190815260200160002060006101000a81548160ff02191690831515021790555050565b6000806109c683611579565b9050600073ffffffffffffffffffffffffffffffffffffffff168173ffffffffffffffffffffffffffffffffffffffff161415610a38576040517f08c379a0000000000000000000000000000000000000000000000000000000008152600401610a2f9061232e565b60405180910390fd5b80915050919050565b60008073ffffffffffffffffffffffffffffffffffffffff168273ffffffffffffffffffffffffffffffffffffffff161415610ab2576040517f08c379a0000000000000000000000000000000000000000000000000000000008152600401610aa9906122ce565b60405180910390fd5b600360008373ffffffffffffffffffffffffffffffffffffffff1673ffffffffffffffffffffffffffffffffffffffff168152602001908152602001600020549050919050565b606060018054610b08906125b7565b80601f0160208091040260200160405190810160405280929190818152602001828054610b34906125b7565b8015610b815780601f10610b5657610100808354040283529160200191610b81565b820191906000526020600020905b815481529060010190602001808311610b6457829003601f168201915b5050505050905090565b610b9d610b96610e73565b83836115b6565b5050565b610bb2610bac610e73565b83610f34565b610bf1576040517f08c379a0000000000000000000000000000000000000000000000000000000008152600401610be89061222e565b60405180910390fd5b50505050565b6060610c0282610e28565b6000600660008481526020019081526020016000208054610c22906125b7565b80601f0160208091040260200160405190810160405280929190818152602001828054610c4e906125b7565b8015610c9b5780601f10610c7057610100808354040283529160200191610c9b565b820191906000526020600020905b815481529060010190602001808311610c7e57829003601f168201915b505050505090506000610cac611723565b9050600081511415610cc2578192505050610d05565b600082511115610cf7578082604051602001610cdf9291906121b2565b60405160208183030381529060405292505050610d05565b610d008461173a565b925050505b919050565b6000600560008473ffffffffffffffffffffffffffffffffffffffff1673ffffffffffffffffffffffffffffffffffffffff16815260200190815260200160002060008373ffffffffffffffffffffffffffffffffffffffff1673ffffffffffffffffffffffffffffffffffffffff16815260200190815260200160002060009054906101000a900460ff16905092915050565b60096020528060005260406000206000915054906101000a900460ff1681565b60007f01ffc9a7000000000000000000000000000000000000000000000000000000007bffffffffffffffffffffffffffffffffffffffffffffffffffffffff1916827bffffffffffffffffffffffffffffffffffffffffffffffffffffffff1916149050919050565b610e31816117a2565b610e70576040517f08c379a0000000000000000000000000000000000000000000000000000000008152600401610e679061232e565b60405180910390fd5b50565b600033905090565b816004600083815260200190815260200160002060006101000a81548173ffffffffffffffffffffffffffffffffffffffff021916908373ffffffffffffffffffffffffffffffffffffffff160217905550808273ffffffffffffffffffffffffffffffffffffffff16610eee836109ba565b73ffffffffffffffffffffffffffffffffffffffff167f8c5be1e5ebec7d5bd14f71427d1e84f3dd0314c0f7b2291e5b200ac8c7c3b92560405160405180910390a45050565b600080610f40836109ba565b90508073ffffffffffffffffffffffffffffffffffffffff168473ffffffffffffffffffffffffffffffffffffffff161480610f825750610f818185610d0a565b5b80610fc057508373ffffffffffffffffffffffffffffffffffffffff16610fa884610518565b73ffffffffffffffffffffffffffffffffffffffff16145b91505092915050565b8273ffffffffffffffffffffffffffffffffffffffff16610fe9826109ba565b73ffffffffffffffffffffffffffffffffffffffff161461103f576040517f08c379a00000000000000000000000000000000000000000000000000000000081526004016110369061224e565b60405180910390fd5b600073ffffffffffffffffffffffffffffffffffffffff168273ffffffffffffffffffffffffffffffffffffffff1614156110af576040517f08c379a00000000000000000000000000000000000000000000000000000000081526004016110a69061228e565b60405180910390fd5b6110bc83838360016117e3565b8273ffffffffffffffffffffffffffffffffffffffff166110dc826109ba565b73ffffffffffffffffffffffffffffffffffffffff1614611132576040517f08c379a00000000000000000000000000000000000000000000000000000000081526004016111299061224e565b60405180910390fd5b6004600082815260200190815260200160002060006101000a81549073ffffffffffffffffffffffffffffffffffffffff02191690556001600360008573ffffffffffffffffffffffffffffffffffffffff1673ffffffffffffffffffffffffffffffffffffffff168152602001908152602001600020600082825403925050819055506001600360008473ffffffffffffffffffffffffffffffffffffffff1673ffffffffffffffffffffffffffffffffffffffff16815260200190815260200160002060008282540192505081905550816002600083815260200190815260200160002060006101000a81548173ffffffffffffffffffffffffffffffffffffffff021916908373ffffffffffffffffffffffffffffffffffffffff160217905550808273ffffffffffffffffffffffffffffffffffffffff168473ffffffffffffffffffffffffffffffffffffffff167fddf252ad1be2c89b69c2b068fc378daa952ba7f163c4a11628f55a4df523b3ef60405160405180910390a46112be8383836001611909565b505050565b6001816000016000828254019250508190555050565b600081600001549050919050565b600073ffffffffffffffffffffffffffffffffffffffff168273ffffffffffffffffffffffffffffffffffffffff161415611357576040517f08c379a000000000000000000000000000000000000000000000000000000000815260040161134e9061230e565b60405180910390fd5b611360816117a2565b156113a0576040517f08c379a00000000000000000000000000000000000000000000000000000000081526004016113979061226e565b60405180910390fd5b6113ae6000838360016117e3565b6113b7816117a2565b156113f7576040517f08c379a00000000000000000000000000000000000000000000000000000000081526004016113ee9061226e565b60405180910390fd5b6001600360008473ffffffffffffffffffffffffffffffffffffffff1673ffffffffffffffffffffffffffffffffffffffff16815260200190815260200160002060008282540192505081905550816002600083815260200190815260200160002060006101000a81548173ffffffffffffffffffffffffffffffffffffffff021916908373ffffffffffffffffffffffffffffffffffffffff160217905550808273ffffffffffffffffffffffffffffffffffffffff16600073ffffffffffffffffffffffffffffffffffffffff167fddf252ad1be2c89b69c2b068fc378daa952ba7f163c4a11628f55a4df523b3ef60405160405180910390a4611501600083836001611909565b5050565b61150e826117a2565b61154d576040517f08c379a0000000000000000000000000000000000000000000000000000000008152600401611544906122ee565b60405180910390fd5b80600660008481526020019081526020016000209080519060200190611574929190611b3a565b505050565b60006002600083815260200190815260200160002060009054906101000a900473ffffffffffffffffffffffffffffffffffffffff169050919050565b8173ffffffffffffffffffffffffffffffffffffffff168373ffffffffffffffffffffffffffffffffffffffff161415611625576040517f08c379a000000000000000000000000000000000000000000000000000000000815260040161161c906122ae565b60405180910390fd5b80600560008573ffffffffffffffffffffffffffffffffffffffff1673ffffffffffffffffffffffffffffffffffffffff16815260200190815260200160002060008473ffffffffffffffffffffffffffffffffffffffff1673ffffffffffffffffffffffffffffffffffffffff16815260200190815260200160002060006101000a81548160ff0219169083151502179055508173ffffffffffffffffffffffffffffffffffffffff168373ffffffffffffffffffffffffffffffffffffffff167f17307eab39ab6107e8899845ad3d59bd9653f200f220920489ca2b5937696c318360405161171691906121f1565b60405180910390a3505050565b606060405180602001604052806000815250905090565b606061174582610e28565b600061174f611723565b9050600081511161176f576040518060200160405280600081525061179a565b806117798461190f565b60405160200161178a9291906121b2565b6040516020818303038152906040525b915050919050565b60008073ffffffffffffffffffffffffffffffffffffffff166117c483611579565b73ffffffffffffffffffffffffffffffffffffffff1614159050919050565b600181111561190357600073ffffffffffffffffffffffffffffffffffffffff168473ffffffffffffffffffffffffffffffffffffffff16146118775780600360008673ffffffffffffffffffffffffffffffffffffffff1673ffffffffffffffffffffffffffffffffffffffff168152602001908152602001600020600082825461186f91906124cd565b925050819055505b600073ffffffffffffffffffffffffffffffffffffffff168373ffffffffffffffffffffffffffffffffffffffff16146119025780600360008573ffffffffffffffffffffffffffffffffffffffff1673ffffffffffffffffffffffffffffffffffffffff16815260200190815260200160002060008282546118fa9190612477565b925050819055505b5b50505050565b50505050565b60606000600161191e846119e7565b01905060008167ffffffffffffffff81111561193d5761193c6126a7565b5b6040519080825280601f01601f19166020018201604052801561196f5781602001600182028036833780820191505090505b509050600082602001820190505b6001156119dc578080600190039150507f3031323334353637383961626364656600000000000000000000000000000000600a86061a8153600a85816119c6576119c5612649565b5b04945060008514156119d7576119dc565b61197d565b819350505050919050565b600080600090507a184f03e93ff9f4daa797ed6e38ed64bf6a1f0100000000000000008310611a45577a184f03e93ff9f4daa797ed6e38ed64bf6a1f0100000000000000008381611a3b57611a3a612649565b5b0492506040810190505b6d04ee2d6d415b85acef81000000008310611a82576d04ee2d6d415b85acef81000000008381611a7857611a77612649565b5b0492506020810190505b662386f26fc100008310611ab157662386f26fc100008381611aa757611aa6612649565b5b0492506010810190505b6305f5e1008310611ada576305f5e1008381611ad057611acf612649565b5b0492506008810190505b6127108310611aff576127108381611af557611af4612649565b5b0492506004810190505b60648310611b225760648381611b1857611b17612649565b5b0492506002810190505b600a8310611b31576001810190505b80915050919050565b828054611b46906125b7565b90600052602060002090601f016020900481019282611b685760008555611baf565b82601f10611b8157805160ff1916838001178555611baf565b82800160010185558215611baf579182015b82811115611bae578251825591602001919060010190611b93565b5b509050611bbc9190611bc0565b5090565b5b80821115611bd9576000816000905550600101611bc1565b5090565b6000611bf0611beb846123ee565b6123c9565b905082815260208101848484011115611c0c57611c0b6126db565b5b611c17848285612575565b509392505050565b6000611c32611c2d8461241f565b6123c9565b905082815260208101848484011115611c4e57611c4d6126db565b5b611c59848285612575565b509392505050565b600081359050611c70816129f1565b92915050565b600081359050611c8581612a08565b92915050565b600081359050611c9a81612a1f565b92915050565b600082601f830112611cb557611cb46126d6565b5b8135611cc5848260208601611bdd565b91505092915050565b600082601f830112611ce357611ce26126d6565b5b8135611cf3848260208601611c1f565b91505092915050565b600081359050611d0b81612a36565b92915050565b600060208284031215611d2757611d266126e5565b5b6000611d3584828501611c61565b91505092915050565b60008060408385031215611d5557611d546126e5565b5b6000611d6385828601611c61565b9250506020611d7485828601611c61565b9150509250929050565b600080600060608486031215611d9757611d966126e5565b5b6000611da586828701611c61565b9350506020611db686828701611c61565b9250506040611dc786828701611cfc565b9150509250925092565b60008060008060808587031215611deb57611dea6126e5565b5b6000611df987828801611c61565b9450506020611e0a87828801611c61565b9350506040611e1b87828801611cfc565b925050606085013567ffffffffffffffff811115611e3c57611e3b6126e0565b5b611e4887828801611ca0565b91505092959194509250565b60008060408385031215611e6b57611e6a6126e5565b5b6000611e7985828601611c61565b9250506020611e8a85828601611c76565b9150509250929050565b60008060408385031215611eab57611eaa6126e5565b5b6000611eb985828601611c61565b9250506020611eca85828601611cfc565b9150509250929050565b600060208284031215611eea57611ee96126e5565b5b6000611ef884828501611c8b565b91505092915050565b600060208284031215611f1757611f166126e5565b5b600082013567ffffffffffffffff811115611f3557611f346126e0565b5b611f4184828501611cce565b91505092915050565b600060208284031215611f6057611f5f6126e5565b5b6000611f6e84828501611cfc565b91505092915050565b611f8081612501565b82525050565b611f8f81612513565b82525050565b6000611fa082612450565b611faa818561245b565b9350611fba818560208601612584565b611fc3816126ea565b840191505092915050565b6000611fd982612450565b611fe3818561246c565b9350611ff3818560208601612584565b80840191505092915050565b600061200c602d8361245b565b9150612017826126fb565b604082019050919050565b600061202f60258361245b565b915061203a8261274a565b604082019050919050565b6000612052601c8361245b565b915061205d82612799565b602082019050919050565b600061207560248361245b565b9150612080826127c2565b604082019050919050565b600061209860198361245b565b91506120a382612811565b602082019050919050565b60006120bb60298361245b565b91506120c68261283a565b604082019050919050565b60006120de602e8361245b565b91506120e982612889565b604082019050919050565b600061210160208361245b565b915061210c826128d8565b602082019050919050565b600061212460188361245b565b915061212f82612901565b602082019050919050565b600061214760218361245b565b91506121528261292a565b604082019050919050565b600061216a603d8361245b565b915061217582612979565b604082019050919050565b600061218d60148361245b565b9150612198826129c8565b602082019050919050565b6121ac8161256b565b82525050565b60006121be8285611fce565b91506121ca8284611fce565b91508190509392505050565b60006020820190506121eb6000830184611f77565b92915050565b60006020820190506122066000830184611f86565b92915050565b600060208201905081810360008301526122268184611f95565b905092915050565b6000602082019050818103600083015261224781611fff565b9050919050565b6000602082019050818103600083015261226781612022565b9050919050565b6000602082019050818103600083015261228781612045565b9050919050565b600060208201905081810360008301526122a781612068565b9050919050565b600060208201905081810360008301526122c78161208b565b9050919050565b600060208201905081810360008301526122e7816120ae565b9050919050565b60006020820190508181036000830152612307816120d1565b9050919050565b60006020820190508181036000830152612327816120f4565b9050919050565b6000602082019050818103600083015261234781612117565b9050919050565b600060208201905081810360008301526123678161213a565b9050919050565b600060208201905081810360008301526123878161215d565b9050919050565b600060208201905081810360008301526123a781612180565b9050919050565b60006020820190506123c360008301846121a3565b92915050565b60006123d36123e4565b90506123df82826125e9565b919050565b6000604051905090565b600067ffffffffffffffff821115612409576124086126a7565b5b612412826126ea565b9050602081019050919050565b600067ffffffffffffffff82111561243a576124396126a7565b5b612443826126ea565b9050602081019050919050565b600081519050919050565b600082825260208201905092915050565b600081905092915050565b60006124828261256b565b915061248d8361256b565b9250827fffffffffffffffffffffffffffffffffffffffffffffffffffffffffffffffff038211156124c2576124c161261a565b5b828201905092915050565b60006124d88261256b565b91506124e38361256b565b9250828210156124f6576124f561261a565b5b828203905092915050565b600061250c8261254b565b9050919050565b60008115159050919050565b60007fffffffff0000000000000000000000000000000000000000000000000000000082169050919050565b600073ffffffffffffffffffffffffffffffffffffffff82169050919050565b6000819050919050565b82818337600083830152505050565b60005b838110156125a2578082015181840152602081019050612587565b838111156125b1576000848401525b50505050565b600060028204905060018216806125cf57607f821691505b602082108114156125e3576125e2612678565b5b50919050565b6125f2826126ea565b810181811067ffffffffffffffff82111715612611576126106126a7565b5b80604052505050565b7f4e487b7100000000000000000000000000000000000000000000000000000000600052601160045260246000fd5b7f4e487b7100000000000000000000000000000000000000000000000000000000600052601260045260246000fd5b7f4e487b7100000000000000000000000000000000000000000000000000000000600052602260045260246000fd5b7f4e487b7100000000000000000000000000000000000000000000000000000000600052604160045260246000fd5b600080fd5b600080fd5b600080fd5b600080fd5b6000601f19601f8301169050919050565b7f4552433732313a2063616c6c6572206973206e6f7420746f6b656e206f776e6560008201527f72206f7220617070726f76656400000000000000000000000000000000000000602082015250565b7f4552433732313a207472616e736665722066726f6d20696e636f72726563742060008201527f6f776e6572000000000000000000000000000000000000000000000000000000602082015250565b7f4552433732313a20746f6b656e20616c7265616479206d696e74656400000000600082015250565b7f4552433732313a207472616e7366657220746f20746865207a65726f2061646460008201527f7265737300000000000000000000000000000000000000000000000000000000602082015250565b7f4552433732313a20617070726f766520746f2063616c6c657200000000000000600082015250565b7f4552433732313a2061646472657373207a65726f206973206e6f74206120766160008201527f6c6964206f776e65720000000000000000000000000000000000000000000000602082015250565b7f45524337323155524953746f726167653a2055524920736574206f66206e6f6e60008201527f6578697374656e7420746f6b656e000000000000000000000000000000000000602082015250565b7f4552433732313a206d696e7420746f20746865207a65726f2061646472657373600082015250565b7f4552433732313a20696e76616c696420746f6b656e2049440000000000000000600082015250565b7f4552433732313a20617070726f76616c20746f2063757272656e74206f776e6560008201527f7200000000000000000000000000000000000000000000000000000000000000602082015250565b7f4552433732313a20617070726f76652063616c6c6572206973206e6f7420746f60008201527f6b656e206f776e6572206f7220617070726f76656420666f7220616c6c000000602082015250565b7f446567726565206973206e6f7420697373756564000000000000000000000000600082015250565b6129fa81612501565b8114612a0557600080fd5b50565b612a1181612513565b8114612a1c57600080fd5b50565b612a288161251f565b8114612a3357600080fd5b50565b612a3f8161256b565b8114612a4a57600080fd5b5056fea2646970667358221220c06611eda3599d554b090c5c90094d07f76ad07d6852e273445c9e77faf3b86664736f6c63430008050033",
  "linkReferences": {},
  "deployedLinkReferences": {}
}